:020000040800F2
:10000000786A0020059C00080D9C00080F9C0008E1
:10001000119C0008139C0008159C000800000000BB
:10002000000000000000000000000000179C000815
:10003000199C0008000000001B9C0008716B000860
:100040001F9C00081F9C00081F9C00081F9C0008A4
:100050001F9C00081F9C00081F9C00081F9C000894
:100060001F9C00081F9C00081F9C00086B93000841
:100070001F9C00080F9400081F9C00081F9C00088C
:100080001F9C0008D19300081F9C00081F9C0008BB
:100090001F9C00081F9C00081F9C00081F9C000854
:1000A000B9970008BB970008EF970008A9970008C8
:1000B000AB970008AD970008AF9700088B94000835
:1000C000959400088F940008B59400081F9C0008C0
:1000D0001F9C0008659B00081F9C00081F9C0008CF
:1000E0001F9C00081F9C00081F9C00081F9C000804
:1000F0001F9C00081F9C0008B7970008499400083F
:100100001F9C00081F9C0008B19700081F9C000856
:100110001F9C00081F9C0008B3970008B5970008B3
:100120001F9C00081F9C00081F9C00081F9C0008C3
:100130001F9C00081F9C00081F9C00081F9C0008B3
:100140001F9C00081F9C00081F9C00081F9C0008A3
:100150001F9C00081F9C00081F9C00081F9C000893
:100160001F9C00081F9C00081F9C00081F9C000883
:100170001F9C00081F9C00081F9C00081F9C000873
:100180001F9C00081F9C0008DFF80CD00CF082FDBB
:10019000004800479D010008786A002010B506F06D
:1001A00065FC00F0F5FA00F07AFA08F09DFD02F027
:1001B000C5F85A2008F0CFFA08F0A6F800F098FC2D
:1001C000002010BD10B50121042008F015FE0CF030
:1001D000BCFA36490CF0A6F8354C21460CF0A2F8D2
:1001E00021460CF09FF8BDE8104032490CF042B8AF
:1001F0002DE9F041304E00250A24358002E0FFF75A
:10020000E1FF054615F0FF4FF9D02C482C4FDFF8E1
:10021000B48085421DDC0020BDE8F08130880CF000
:1002200094FA39460CF07EF829460CF091FB3088A0
:1002300001D2401C0AE00CF088FA41460CF072F83A
:1002400029460CF08FFB03D23088401E308000E03E
:10025000002430880CF079FA39460CF063F829460E
:100260000CF076FB09D330880CF06FFA41460CF0A5
:1002700059F829460CF076FB01D2641ECED23088A4
:10028000CAE710B5FFF79EFF04460B48008850B13F
:100290000CF05BFA0C490CF045F821460CF062FBBF
:1002A00001D8002010BD012010BD00006666923B01
:1002B000D7A3803FCDCCCC3E000000200000A04062
:1002C000000090400000604033335340FE49087006
:1002D00070472DE9F041FC4A0C21D21D951D0A27DB
:1002E000AE1DFA4C4FF0020C0D2820D2DFE800F0D2
:1002F0002007C6C6C6C6243B517F97AF670024348B
:100300000320E07005202071EF4A002004F8241932
:10031000193206E0115C94F82830B1FBF3F1215456
:10032000401C94F8241001EB41018142F2DCA5E06D
:10033000002084F82700A1E084F82770642084F866
:10034000280084F824C0002006E0115C94F82830CE
:10035000B1FBF3F12154401C94F8241001EB41014E
:100360008142F2DC8AE084F8277084F8281084F84F
:1003700024C0002006E0295C94F82820B1FBF2F1AB
:100380002154401C94F8241001EB41018142F2DC1D
:1003900074E084F8277084F8281084F824C00020C2
:1003A00006E0315C94F82820B1FBF2F12154401CA6
:1003B00094F8241001EB41018142F2DC5EE084F804
:1003C0002770C14A84F82810002084F824C0521CE9
:1003D00006E0115C94F82830B1FBF3F12154401C85
:1003E00094F8241001EB41018142F2DC46E084F8EC
:1003F000277084F8281084F824C0002008E0115CDD
:100400002B5C194494F82830B1FBF3F12154401CC3
:1004100094F8241001EB41018142F0DC2EE084F8D5
:10042000277084F8281084F824C0002008E0115CAC
:10043000335C194494F82830B1FBF3F12154401C8B
:1004400094F8241001EB41018142F0DC16E084F8BD
:10045000277084F8281084F824C0002008E0295C64
:10046000325C114494F82820B1FBF2F12154401C75
:1004700094F8241001EB41018142F0DC94F828004B
:100480000CF063F9054694F827000CF05EF99049EA
:100490000BF048FF8F490BF07BFF29460BF042FF22
:1004A000E062BDE8F08170B50E468B4C81B2154616
:1004B00020460AF0AEFEB1B220460AF0A8FEA9B26C
:1004C0002046BDE870400AF0A0BE2DE9F0477F4C01
:1004D00000252434A570617814F82409814206D3DC
:1004E00004F8255F2573A07340002074253C94F820
:1004F000333094F83200E15C884204D14FF00100BF
:1005000084F8260007E002D200F1010001E0A0F12A
:10051000010084F8320094F8312094F83000A15C96
:10052000884206D194F8260000F1010084F82600E4
:1005300007E002D200F1010001E0A0F1010084F81F
:10054000300094F8351094F83400665CB04206D15F
:1005500094F8260000F1010084F8260007E002D29A
:1005600000F1010001E0A0F1010084F8340094F8EA
:10057000260003280AD314F8250F5B1C401C2070AA
:10058000A373521C2273491C2174253C4E4F524EBA
:100590004FF4FA6938784FF03208022836D0032831
:1005A00044D0042854D0052864D02C3420790CF091
:1005B000CCF821680BF0B6FE464D29460BF0E8FE5C
:1005C0000CF00DF981B230460AF023FEA0790CF050
:1005D000BCF821680BF0A6FE29460BF0D9FE0CF002
:1005E000FEF881B230460AF012FE207A0CF0ADF827
:1005F00021680BF097FE29460BF0CAFE0CF0EFF8CD
:1006000081B23046BDE8F0470AF0FFBD49463046AA
:100610000AF0FFFD002130460AF0F9FD00213046C6
:100620000AF0F3FD04F8308FA5700FE0002130468A
:100630000AF0EFFD494630460AF0E9FD0021304658
:100640000AF0E3FD04F8305F84F80280257123E0AE
:10065000002130460AF0DDFD002130460AF0D7FDCA
:10066000494630460AF0D1FD04F8305FA57084F8A1
:10067000048011E0494630460AF0CBFD4946304639
:100680000AF0C5FD494630460AF0BFFD04F8308F38
:1006900084F8028084F804803D70BDE8F0871CB5C2
:1006A000012108460AF0BFFA4FF4E06000900220F2
:1006B0008DF8040003208DF8050000208DF8060059
:1006C0008DF80700694609E002000020982B002001
:1006D0000000FA440000C84200000140134C2046CC
:1006E00009F04CFF01220921204609F0BBFF01223D
:1006F0000A21204609F0B6FF01220821204609F010
:10070000B1FF0B4CA8224FF4FA61204608F010FF0D
:1007100000220721204608F075FF012120460AF03B
:1007200051FC0120FFF7D5FD1CBD00000000024078
:10073000000001407CB504466B480D46844203D15D
:10074000012108460AF06FFA6848844203D101216A
:1007500002200AF068FA6648844203D1012104208D
:100760000AF061FA6348844203D1012108200AF0AB
:100770005AFA03208DF8050000208DF804000120AE
:100780008DF8070069462046009509F0F7FE7CBD0C
:1007900070B5594D54480821C5E900011022C5E93A
:1007A00002022021C5E904014023C5E906032862AD
:1007B000802068624E48C5E90A02C5E90C014B4831
:1007C0000122C5E90E020222C5E910020024C5E992
:1007D000120105EBC400416855F83400FFF7AAFF89
:1007E000641CE4B2502CF4D370BD10B5012102207A
:1007F00008F002FB00EB400101EB0010000B093890
:1008000010BD10B50121032008F0F6FA00EB4001FD
:1008100001EB00100921A1EB103010BD10B5012132
:10082000084608F0E9FA00EB400101EB0010000B6C
:10083000093810BD10B50121002008F0DDFA00EBE9
:10084000400101EB00100921A1EB103010BD70B583
:100850000D460446FFF7C9FF2080FFF7D2FF28802E
:1008600070BD70B50D460446FFF7D8FF2080FFF736
:10087000E1FF288070BD204A10B502EBC00152F89C
:100880003000898889B209F0CAFE08B1002010BD85
:10089000012010BD70B5184E0546002406EBC400BB
:1008A000808881B256F8340009F0B9FE30B10021D9
:1008B0002955641CE4B20A2CF0D370BD0121F7E77E
:1008C0000020D8E70120D6E70220D4E70320D2E7B2
:1008D0000420D0E70520CEE70620CCE70720CAE7B2
:1008E0000820C8E70920C6E70000024000040240D3
:1008F00000080240000C0240D02B002010B5072851
:100900001BD2DFE800F004070A0D1013160001F0F7
:1009100042FC10E000F0F4F90DE004F069FB0AE09D
:1009200004F01EF807E001F0DEFD04E005F0A6F893
:1009300001E004F097FB012010BD002010BDF8B5C8
:100940004FF4FC6007F0A0FE2320012200904FF43A
:100950009F731146002006F0DFFB91A000901F233B
:1009600000220A215E2006F0E6FE8DA000901F23E3
:1009700000220A215F2006F0DEFE89A000901F23DE
:1009800000220A21602006F0D6FE88A04FF6FF74F0
:1009900000902346022203214FF4937006F0CBFE11
:1009A00082A0009023460222032140F2271006F085
:1009B000C2FE7F4D44240094A88840F2EF361A38D6
:1009C00082B228885C23801E81B2304606F0A4FBE8
:1009D00078A00090A8884FF47847143801B2B5F990
:1009E00000003B46012206F0A6FE0094B5F84C003C
:1009F0005C231A3882B2B5F84800801E81B23046B6
:100A000006F08AFB6EA00090B5F84C003B46143807
:100A100001B2B5F94800012206F08DFE5C2000907D
:100A2000B5F894005C231A3882B2B5F89000801EA5
:100A300081B2304606F070FB64A00090B5F89400D7
:100A40003B46143801B2B5F99000012206F073FE5E
:100A5000002404EBC40005EB800007F020FC641CBC
:100A6000E4B2072CF5D3F8BD2DE9F0475A49881EAA
:100A700007F0E4FC050038D0574EDFF83491B61E7D
:100A8000032D1BD10024C84604EBC40108EB8107E9
:100A90002B46B6F90220B6F90010384607F07AFB6B
:100AA00040B1384607F0FBFB2046FFF727FF08B1AF
:100AB000FFF745FF641CE4B2072CE5D3B0460024E1
:100AC0004E4604EBC40006EB800007462B46B8F9FF
:100AD0000220B8F9001007F05DFB10B1384607F0AE
:100AE000DEFB641CE4B2072CEBD30120BDE8F087E9
:100AF0002DE9FF410021384F0C234C222C4EBF1C06
:100B00004CF2186C47F6EF350C4601EBC10003F1CF
:100B1000580E26F8203006EB80001FFA8EFE8280E9
:100B20001032A0F802E092B2C28003291DD0012940
:100B30001BD0083212B257F821E0C0F810E0C0F81C
:100B400018E0C0F820E08481A0F80EC08482C5823D
:100B5000491C8483C9B2C5830729D6D3FFF7EFFEAA
:100B60004FF4784540F2131614E00EF1100E0FFA10
:100B70008EF34C22DFE7FFF725FB0BF092FECDE969
:100B8000020116A0CDE900402B4601221221304679
:100B900006F0AFFDFFF768FF0028ECD1BDE8FF814C
:100BA000564E4420506C617900000000564E4400BF
:100BB000202C00202020202047414D45000000002F
:100BC000202052454D4F5445000000002020534541
:100BD0005454494E470000004200002025322E3177
:100BE0006620560070B506460D46092E1FDA092DFF
:100BF00002DB0021761CF7E7092E18DA6E48C6EBF7
:100C0000861100EB4100C5EBC50100EB4104A07A61
:100C100078B1691CE8E72946304600F090F840B109
:100C2000207BA072691C3046FFF7DCFF08B1012071
:100C300070BD207B401C42B22273092AEBDD0020EC
:100C4000A072207370BD2DE9F0475C4C00255A4E10
:100C50008246A57004F104094FF00308E570A278FC
:100C600002EBC201C2EB821001EB090C06EB40075C
:100C7000E178C1EBC1001CF8013007EB4000491CD2
:100C800043728572057380F80B80C8B2E070092842
:100C9000EED3521CD0B2A0700928DFD30BF0C6FAF5
:100CA0004FF0090890FBF8F208FB1201CAF10A00A4
:100CB000C0EBC0000844C7B21EE00BF0B7FA90FBCF
:100CC000F8F208FB120020700BF0B0FA90FBF8F27B
:100CD00008FB1200C0B260702178C0EBC000C1EB0D
:100CE000811106EB410101EB4000817A21B9417A83
:100CF0007F1E8172FFB2C572002FDED1BDE8F08782
:100D000070B500F00FFC0520FFF79DFF00F0FBFC25
:100D100000F024FA064620462946641C284B45F17B
:100D200000050022181A8A4106D200F038FB08B1EB
:100D3000002400E0224C0025002EE9D170BDF0B562
:100D4000032490FBF4F303EB4303DFB291FBF4F3D2
:100D500003EB4303184DDEB2C0EB8010002305EB1C
:100D6000400CC1EBC101C3EBC3000CEB4000807A27
:100D7000904219D0C3EB831005EB400000EB41001B
:100D8000807A904210D0B3FBF4F004FB103EBE44D6
:100D9000CEEB8E1E304405EB4E0EC0EBC0000EEBCA
:100DA0004000807A904201D10020F0BD5B1CDBB294
:100DB000092BD8D30120F0BD282D00206000002091
:100DC000FFFF04002DE9FC47FD49FEA0CDE900012D
:100DD0008C23FF245A003121132005F02FFF002817
:100DE00064D00023FA4F18460326C3EB8312002178
:100DF00007EB4205C1EBC10205EB4202491C5072F0
:100E00009072D672C9B210720929F3D35B1CDBB29F
:100E1000092BEAD300F077FCEE4FDFF8BC933FE0FC
:100E2000EC49891C881E07F009FB8046B7F90000D1
:100E3000B0F58E7F34DBB7F90200002830DBB8F163
:100E4000000F2DD0B8F1030F15D1002505EBC5011A
:100E500009EB81064346B7F90220B7F90010304686
:100E600007F098F918B1304607F0B8F92C466D1C18
:100E7000EDB20A2DEAD3002505EBC50109EB810689
:100E80004346B7F90220B7F90010304607F082F95F
:100E900010B1304607F0A2F96D1CEDB20A2DEBD36C
:100EA000FF2CBDD014B12046FFF7CDFE00F02BFC87
:100EB0000120BDE8FC872DE9FC41C149C7A088316C
:100EC000CDE900018C235A003121132005F0B6FE34
:100ED00010B3BF4F0025C5EB8510002407EB40067B
:100EE000C4EBC40006EB4000417A69B1827A5AB182
:100EF000C37A4BB1914201D0012100E00221C172BD
:100F00002146284600F0A2FB641CE4B2092CE7D37A
:100F10006D1CEDB2092DDED300F0F5FB0120BDE81C
:100F2000FC812DE9FC410021A94C0D460B46C1EB8B
:100F30008112002004EB420CC0EBC0020CEB420219
:100F4000567A16B9D77A022F01D16D1CEDB2927A7A
:100F50000AB1B24201D05B1CDBB2401CC0B209280E
:100F6000EAD3491CC9B20929E1D3002B2BD09DA19A
:100F7000A6A0CDE900016423C82245213B2005F04D
:100F80005DFE002848D005B30025A0460024C5EB2F
:100F90008511022708EB4106C4EBC40006EB4000B4
:100FA000C17A31B1417A8172C7722146284600F078
:100FB0004DFB641CE4B2092CEED36D1CEDB2092D7F
:100FC000E4D394A11FE098A11DE000210E46C1EBDF
:100FD0008112002004EB4205C0EBC00205EB420287
:100FE000937A0BB15372D672401CC0B20928F3D366
:100FF000491CC9B20929EAD300210846FFF7F2FDCE
:101000000028DED190A195A0CDE900016423C8227B
:1010100045213B2005F0DAFE00F075FB01207EE75C
:101020002DE9F04788468146C0EB8911684800EBFE
:101030004101C8EBC80001EB4006307A00B3002440
:10104000654D274604EBC40005EB8000077207F0EE
:10105000C5F8641CE4B20A2CF4D3B07A012100EB89
:10106000C00005EB800001724146484600F0EEFAF0
:1010700004EBC40005EB8000BDE8F04707F0AEB814
:1010800041464846BDE8F04700F0E0BA2DE9F04798
:101090000025DFF83C8181462F460024C5EB8511F1
:1010A00008EB4101C4EBC40201EB4206317A71B393
:1010B00037722146284600F0C9FAB9F1060F34D23A
:1010C000DFE809F01B2803080F140DB16D1E04E0C2
:1010D00008252AE0082D02D26D1CEDB225E000257E
:1010E00023E00CB1641E04E008241EE0082C02D2A8
:1010F000641CE4B219E0002417E0F07A032801D060
:10110000012812D1B07A092802D2401C0CE01AE062
:10111000B7720AE0F07A032801D0012805D1B07A2D
:1011200008B1401E00E00920B072C5EB851208EB43
:101130004200C4EBC40200EB4200012101722146CF
:101140002846FFF76DFF641CE4B2092CA6D36D1C82
:10115000EDB2092DA1D30120BDE8F0872DE9F047BC
:101160001C49891D881E07F069F91A4F0546B7F911
:101170000400B0F58E7F77DBB7F90610002973DB2A
:10118000002D1BD0032D19D0DFF84C80002404EB78
:10119000C40108EB810006462B46B7F90620B7F9D3
:1011A000041006F0F7FF28B1304607F017F8204684
:1011B00000F080F9641CE4B20A2CE8D3E8E053E0C4
:1011C00014E4000820204E65772047616D6500001B
:1011D000282D0020B60000209831002020204368F0
:1011E00065636B002020446F20796F752077616EF6
:1011F0007420746F20736F6C7665206375727265EE
:101200006E742067616D653F000000002020536F01
:101210006C7665002020536F6C76696E672073755D
:101220006363656564210000202054686520676160
:101230006D6520697320616C726561647920736FDC
:101240006C766521000000002020496E70757420C6
:10125000556E736F6C7661626C6521002020536F50
:101260006C766564000000007A2846DBB7F906104A
:10127000032942DB002D3FD0032D3DD0DFF89492AF
:101280000024B846C4EB8410002609EB4007C6EBE7
:10129000C600B8F90420B8F9061007EB40001DB3EA
:1012A000032D0DD0038893420EDC438893420BDB61
:1012B00082888A4208DCC2888A4205DB012204E077
:1012C000017A89B1002106E00022017A8A420BD01E
:1012D0000029F7D1012101723146204600F0B6F90C
:1012E00031462046FFF79CFE761CF6B2092ECED37F
:1012F000641CE4B2092CC5D34AE0052848DBB7F9E1
:101300000600462844DBB5B3834E032D4FF000049E
:1013100015D0B04604EBC40108EB810006462B460D
:10132000B7F90620B7F9041006F034FF10B13046C3
:1013300006F054FF641CE4B2052CEBD328E004EB68
:10134000C40006EB80002B46B7F90620B7F904105D
:1013500006F020FFF0B104EBC40006EB800006F0BD
:101360003DFF052C14D2DFE804F003070A0E11003C
:10137000BDE8F04726E50BE0BDE8F0479BE5BDE89A
:10138000F04700F073B8BDE8F047CAE50020E3E697
:101390000120E1E6641CE4B2052CD0D3F8E72DE986
:1013A000F0470024FFF721FA8046FFF72AFA0746A4
:1013B000FFF734FAFFF73EFA81465848FFF76AFA1A
:1013C000564DA61EA8782979884207D018B1022068
:1013D000FFF75CFE0446287940B90CE0022F03DDDC
:1013E0000220FFF753FE0446B74204DA0320FFF75A
:1013F0004DFE2044C4B2E8786978884209D020B113
:101400000420FFF743FE2044C4B2687880B1052071
:101410000AE0B8F1020F04DD0520FFF737FE204493
:10142000C4B2B04504DA0420FFF730FE2044C4B251
:10143000287A6979884208D020B10120FFF726FE7A
:101440002044C4B2687950B90EE0B9F1020F04DD4E
:101450000120FFF71BFE2044C4B2B14504DA00208E
:10146000FFF714FE2044C4B2204675E62DE9F04192
:10147000284F0025C5EB8510002407EB4006C4EB80
:10148000C40006EB4000017A49B1C17A39B1417A12
:1014900081720221C1722146284600F0D7F8641CEF
:1014A000E4B2092CEBD36D1CEDB2092DE2D301207F
:1014B000BDE8F0812DE9F0410746194900EBC7006E
:1014C00001EB8000007A0028F2D0DFF84880002588
:1014D000C5EB8511002408EB4106C4EBC40006EB04
:1014E0004000017A61B1C17A51B1022908D08772F6
:1014F000012901D10321C1722146284600F0A6F836
:10150000641CE4B2092CE8D36D1CEDB2092DDFD3C5
:10151000CEE70000282D0020003300201C2D0020E5
:10152000983100202DE9F043DFF8DC82032001210F
:101530007A2488F8381200218446B1FBFCF20CFBB7
:101540001212002A6BD0401C82B202F11805C1EBC6
:1015500081130020AFB208EB4303B0FBFCF60CFB99
:101560001606002E5DD0641CC0EBC006A4B223F8A2
:10157000164003EB46061034B280A4B2401C7480BF
:10158000C0B2F7800928E8D3491C7A24C9B2A8B2AE
:101590000929D2D300234FF48E75DFF87092DFF85B
:1015A0007082194605F1300C1C464CF2186747F65C
:1015B000EF3601EBC10029F8205009EB8000838051
:1015C0001833A0F802C09BB2C3808481C78158F849
:1015D000212002618482C68282618483491CC68381
:1015E000C9B202620A29E4D30525DFF82492462213
:1015F000DFF82082002105F1700CA9F1140901EB3C
:10160000C10028F8205008EB80008280A0F802C0BA
:101610001832C280521D92B2032904D005E0C01CCA
:1016200092E7E41CA0E7183292B28481C78159F88E
:10163000213003618482C68283618483491CC6830E
:10164000C9B203620529DAD3BDE8F083FEB5C0EB69
:1016500080126D4847F6EF3700EB4204C1EBC10240
:1016600004EB42004CF21865C17A51B1012927D030
:1016700002291FD003293AD1017A51B32B463D46A6
:1016800028E0017A4FF478461DE03D461DE062A354
:101690000095CDE90131B0F9041034F91200334658
:1016A00022E05EA1CDE90051B0F9041034F9120036
:1016B000334624E0017A4FF01F060029E5D104E00B
:1016C000017A4FF6E0760029DFD1817A0029E8D04F
:1016D000DDE70023817A59B14FA60095CDE901617C
:1016E000B0F9041034F91200002206F002F8FEBD31
:1016F0004AA1CDE90051B0F9041034F912000022DA
:1017000005F0F7FFFEBD38B54FF6FF7006F0BCFFE1
:101710002A247523002203210A20009405F0C2FC2C
:101720007523012202211420009405F0BBFC7523CF
:10173000022201211E20009405F0B4FC752303222F
:1017400000212820009405F0ADFC35A000901F2357
:1017500000220A210E2005F0EEFF31A000901F2389
:1017600000220A210F2005F0E6FF2DA000901F2384
:1017700000220A210C2005F0DEFF29A000901F2383
:1017800000220A210D2005F0D6FF27A0009000239B
:1017900002221C215F2005F0CEFF23A00090002331
:1017A00002221C215E2005F0C6FFEA200090A22341
:1017B00003227A210F2005F0AFFC164D002404EB24
:1017C000C40005EB800006F009FD641CE4B2052CA2
:1017D000F5D30025002421462846FFF737FF641C77
:1017E000E4B2092CF7D36D1CEDB2092DF2D3074DED
:1017F000002404EBC40005EB800006F0EFFC641C41
:10180000E4B20A2CF5D338BD282D002098310020F1
:10181000D4000020003300202564000020000000D8
:101820005375446F4B750000564E440038B50B4657
:1018300000EB8001C0EB0010FD4C00EB40002044A9
:1018400003EB8302C91D0932C05C89B292B206283B
:1018500026D2DFE800F003070B0F131B022340F230
:10186000F3300EE0022340F2EF300AE0022340F2B0
:10187000EB3006E002234FF4784002E002234FF6FB
:10188000FF7001B0BDE8304005F0C8BC0520891EDE
:10189000921E0346009089B292B2002005F03CFCF3
:1018A00038BD3EB5E34CE4A14FF6FF72A08900239A
:1018B000401C80B2A081CDE9002102901A461E2171
:1018C000EB2005F016FFA189DDA0CDE90001002382
:1018D0001A461E21EC2005F02EFFA189D8A0CDE9E3
:1018E000000100231A461E21ED2005F024FFA189E6
:1018F000D3A0CDE9000100231A461E21EE2005F0F9
:101900001AFFA189CEA0CDE9000100231A461E21AD
:10191000EF2005F010FF3EBD2DE9F05F8046C0EBE3
:101920000810DFF80CB3002400EB4000DFF804A33C
:101930000D4600EB0B09012A29D005F0F6F8DAE98B
:101940000636C71A61EB0606DAF814000AF05BFFE8
:10195000381A8E412BD305F0E8F8CAE906014FF09A
:10196000FF30B8F1000F23DB002D21DBB8F12D0F84
:101970001EDA2D2D1CDA19F805100427DFF8C8B27D
:10198000062954D2DFE801F0130716541614032079
:1019900009F80500E3E7BAF806200BEB820131F9FC
:1019A000083C434504D131F9061CA94200D100206E
:1019B000BDE8F09FBBF90000DFF87492C0EB0010A7
:1019C000BBF9021000EB400202EB09005E460F5427
:1019D000BBF80210BBF80000FFF728FFBAF80600BA
:1019E000574626F8208006EB80004FF0010845801E
:1019F0004D4611E006EB84029088D18826F8240039
:101A00005180C0EB001202EB42022A4402F801802E
:101A1000FFF70CFF641CA4B2F8888442EAD380B2BA
:101A200006EB8000083841880088FFF7FFFE70E071
:101A30008649DAF810005646884209DA84490AF0E5
:101A400019FC014630614FF07E500AF0A1FC706134
:101A5000F088B0F5007F13D309F8057070690AF0BB
:101A6000D2FE0218D6E9063049419A1A60EB01000D
:101A7000C6E90620002229464046FFF74DFF1BE03D
:101A800090B10BEB8000001F0122B0F90010B0F9FB
:101A90000230C1EB011101EB4107654939445A5449
:101AA00041880088FFF7C2FEF0880BEB80012BF81D
:101AB00020804D80401CF0802C27DFF874910AF0C4
:101AC000B5FB90FBF7F107FB110086B20AF0AEFB05
:101AD00090FBF7F107FB110081B2C6EB061000EB9B
:101AE000400202EB0900405C042803D1464503D1C3
:101AF000A94201D1002CE2D0C6EB061000EB400356
:101B000003EB0900032242543046FFF78FFEFFF734
:101B1000C8FEBAF80600464A0BEB8000001F0023FF
:101B2000B0F90010B0F90250C1EB011101EB410115
:101B300011445C466B54BBF90010BBF90250C1EB79
:101B4000011101EB4101114402236B5441880088CB
:101B5000FFF76CFE61882088FFF768FE012027E709
:101B60002DE9F05F0C460546FEF73FFE8246FEF784
:101B700048FE8146FEF752FE8046FEF75BFE0746B2
:101B8000FEF7A4FE18B1FEF79FFE002845D1FEF730
:101B900099FE18B1FEF798FE00283ED1FEF796FE9A
:101BA00018B1FEF795FE002837D1FEF78BFE18B16D
:101BB000FEF78EFE002830D1FEF790FE18B1FEF73A
:101BC0008FFE002829D1FEF787FE18B1FEF788FEA8
:101BD000002822D1FEF782FE18B1FEF77BFE002816
:101BE0001BD1FEF779FE18B1FEF774FE002814D160
:101BF000FEF76AFE00264FF0FF3B10B9FEF770FEBD
:101C000010B184F800B007E0FEF762FE10B9FEF7ED
:101C100061FE18B1012020702E7079E0FEF756FEAB
:101C200010B9FEF75BFEA8B1267085F800B06FE032
:101C3000B433002000010020202530336420000050
:101C400020253033640000009E3B0020CDCC4C3E6C
:101C500017B75139FEF736FE10B9FEF73DFE18B141
:101C600026700120287053E00AF102016FF0010094
:101C7000042903D809F10201042924D9B9F1020F7A
:101C800002DD84F800B003E0814501DA0121217012
:101C9000824502DA85F800B004E0BAF1020F01DDF6
:101CA00001202870BAF10001484601DACAF10001AA
:101CB000002801DAC9F10000814201DD267000E050
:101CC0002E70012074E608F10201042902D8B91C23
:101CD00004291DD9022F02DD84F800B003E08742F9
:101CE00001DA01212170804502DA85F800B004E0B4
:101CF000B8F1020F01DD01202870B8F1000001DA0F
:101D0000C8F10000002F00DA7F42B842D8DDD5E7E5
:101D100000204DE62DE9FF4115460E46044603AA74
:101D20000021684603F0FCFDFE489DE80E000EC051
:101D30009DF80C00012803D0002004B0BDE8F0811C
:101D4000DFF8E083084603F043FBF74F3881D8F80B
:101D5000040003F03DFB7881B7F90810002901DB8E
:101D60000A4600E04A42A24206DC002801DB0246A5
:101D700000E04242A2421CDD012362429F1E9142CA
:101D800001DA337002E0A14200DD3770904201DADF
:101D90002F7002E0A04200DD2B70002900DA4942DA
:101DA000002800DA40420022814201DD2A7000E072
:101DB00032700120C1E72DE9F05FDB4D8946824694
:101DC000002411464FF07E502A610AF0E1FA042205
:101DD0006861C4EB0411D54B01EB410100201944AB
:101DE0000A54401C80B22D28FAD3641CA4B22D2CB6
:101DF000EFD3CD4900201624C880152001222146AA
:101E0000FFF78AFD2146172501220846FFF784FDCA
:101E1000012221462846FFF77FFD65E00AF006FA19
:101E20000A2190FBF1F201FB120005B20AF0FEF963
:101E30002C2490FBF4F104FB110086B20AF0F6F9B1
:101E400090FBF4F104FB110084B2C6EB061000EB2A
:101E50004001B6480844005D042845D10AF0E6F97F
:101E6000B34F3840012809D0012080460AF0DEF93E
:101E7000AF490840012804D001272DE04FF0FF3082
:101E8000F3E74FF0FF3727E0C6EB061000EB400208
:101E9000A648052102EB000B0BF804100AF0C6F966
:101EA000A3490840012808D0E019411E2B2912D26D
:101EB0001BF8001004293ED00DE006EB0800411E7F
:101EC0002B2908D2C0EB001101EB410297491144C4
:101ED000095D04292DD000256D1E2DB2002DD3DC07
:101EE000AAF101000FFA80FABAF1000F96DC2C2556
:101EF0008E4E0327B9F10000A9F101010FFA81F913
:101F00001BDD0AF093F990FBF5F105FB110084B29B
:101F10000AF08CF990FBF5F105FB1100C4EB0411FC
:101F200001EB410180B231440A5C042AE2D10F5432
:101F3000E0E786B2D0E784B2CEE77B490020888113
:101F40004870087034E5FEB54FF6FF75284606F078
:101F50009BFB002077A1CDE90001024601461F232B
:101F6000ED2005F0C6FB73A0002200901F23114650
:101F7000EE2005F0E0FB6FA0002200901F23114629
:101F8000EF2005F0D8FB6DA0009000230222E12194
:101F90004FF4917005F0CFFB68A00090002302225F
:101FA000E12140F2231005F0C6FBE9200346009032
:101FB000032201210F2005F075F8E7200346009069
:101FC000042202210F2005F06DF8E5200346009061
:101FD000052203210F2005F065F8524E00246C3EC7
:101FE00004EBC40006EB800006F059F9641CA4B2AF
:101FF000032CF5D34C4F002420374B4A1E20521C93
:10200000511EFFF787FE10B157F8341002E007EBBE
:10201000C400416804EBC40006EB800001618161EB
:10202000016204EBC40006EB800006F038F9641C82
:10203000A4B2032CE1D30026002421463046FFF74A
:10204000F5FB641CA4B22D2CF7D3761CB6B22D2E52
:10205000F2D3354CA089AFF220410095CDE90110B3
:1020600000231A461E21EB2005F043FBA189AFF2A5
:102070003040CDE9000100231A461E21EC2005F076
:102080005AFBA189AFF24840CDE9000100231A466E
:102090001E21ED2005F04FFBA189AFF25C40CDE998
:1020A000000100231A461E21EE2005F044FBA18901
:1020B000AFF27440CDE9000100231A461E21EF2043
:1020C00005F039FBFEBD10B520B1012808D002286B
:1020D0000AD10BE01A4A0A213220FFF76CFE01E018
:1020E00003F0CCFCFFF72FFF012010BD002010BD36
:1020F0002DE9F0410C49091D881E06F09FF90600E4
:1021000047D0084D084F6C3D032E2CD1002404EB22
:10211000C40005EB80003346B7F90420B7F902107C
:1021200010E000000C44002000010020B433002027
:1021300001000080536E616B65000000564E440044
:102140006F12033B06F026F848B104EBC40005EB20
:10215000800006F0A4F82046BDE8F041B3E7641C17
:10216000E4B2032CD3D30024A84604EBC40108EB4B
:10217000810005463346B7F90420B7F9021006F08E
:1021800009F810B1284606F08AF8641CE4B2032C62
:10219000EBD30120D2E52DE9FC47ED2555230021A5
:1021A000DFF8C080DFF8C0C00C4605F130074CF204
:1021B000186947F6EF3601EBC10028F8205008EB0C
:1021C0008000838047801033C3808481A0F80E9004
:1021D0005CF8312002618482C68282610A33848382
:1021E000491CC68389B29BB202620329E3D31F4C08
:1021F0002BE01D491F39481EFFF7B2FC28B91A4AC7
:102200000F201F3A511EFFF785FD174B1848203B42
:10221000D98893F9012000EB8100001F41880088D4
:10222000114493F9002009B2104400B20022FFF7D4
:1022300073FB401C10D10FA112A05023CDE9000167
:10224000A0221946184604F0C1FD22460A21322078
:10225000FFF7B1FDFFF777FEFFF74AFF0028C8D16F
:10226000BDE8FC87A0430020200100206F12033B43
:102270009E3B0020200A2047414D45204F564552A5
:10228000202100002020202020536E616B65204714
:10229000616D65000421994808F0CBB970B504461A
:1022A000FFF7F8FF964D58B970BD8021284609F018
:1022B000D7FB0028F9D014F8011B284609F03FFB92
:1022C00020780028F1D170BD70B50C460546FFF7A7
:1022D000E1FF8B4E58B970BD8021304609F0C0FB3C
:1022E0000028F9D015F8011B304609F028FB200022
:1022F000A4F10104A4B2EFD170BD38B50024254685
:1023000001E00555641C8C42FBD30B4602460121BB
:102310007C48009507F006FC38BD7B4A08B59388D9
:1023200001465288774807F09DFA0020034602468E
:1023300000900121734807F0F5FB08BD2DE9FC4131
:102340000121102008F06FFC01258DF804500326B0
:102350008DF805600024DFF8B4818DF8064002276F
:1023600000958DF807706946404608F007F901218D
:10237000084608F058FC8DF8045004208DF80560DC
:1023800000908DF806408DF8077069465B4808F0AC
:10239000F5F80121102008F046FC8DF804408DF876
:1023A00005608DF8064000978DF807506946404655
:1023B00008F0E4F80121022008F035FC8DF80470E3
:1023C000C0208DF80640524D00908DF807408DF8E2
:1023D00005606946284608F0D1F8072206212846FC
:1023E00008F040F907221146284608F03BF9454815
:1023F00043496A040164252180F84410454980F866
:102400002040C0E90D21462180F83C10062180F8CB
:102410003D1080F83E40047042613E4A783A826145
:102420003A22027741778477BDE8FC8110B5334CBE
:1024300002460421204608F00AF92046BDE8104073
:10244000042108F0F6B810B5304C024601212046B0
:1024500008F0FDF82046BDE81040012108F0E9B879
:1024600001212A4808F0E5B80221284808F0D7B829
:1024700070B5254C4FF4FA752178D8B1012930D0C8
:1024800001202070FFF706FF28B10020FFF7CEFFE4
:10249000284604F05EFB0020FFF7D5FF0120FFF780
:1024A000C5FFA2886188A068FFF737FF00F049FDEB
:1024B000012070BDA9B100202070FFF7EBFE28B10C
:1024C0000020FFF7B3FF284604F043FB0120FFF78D
:1024D000BAFF0120FFF7AAFF002211464FF4164071
:1024E000E2E7002070BD10B500F00AFC00F0FAFE33
:1024F00000F025FB0028FBD110BD000000000240C9
:1025000000100140F065002038010020001002405A
:1025100000040240B86402401CB5044651B1FAA060
:10252000CDE900016423C82245213B2004F04EFC84
:1025300000F0D8FE20461CBD3EB5054601F0F8FD72
:10254000F54A05EBC50102EB81040F34012819D0CF
:10255000284601F0EDFD01282DD9F0A0CDE900407D
:102560006423C82245213B2004F068FB08B32846B9
:1025700001F0CFFE10B1284601F028FF00F0B2FEB6
:1025800001203EBDEFA0CDE900406423C8224521D3
:102590003B2004F053FB60B102A9F3A005F06EFAF2
:1025A00010B1029801F0AFF80F21284601F029FE82
:1025B000E4E700F097FE00203EBDF8B50021EF4CA7
:1025C000EF4FF04DF04EF14A4FF0020E4FF0010C7C
:1025D000162864D2DFE800F00B0E1215181B1E211E
:1025E0002327292C303235383A3D404B55674FF47C
:1025F000165001E04FF49640206054E04FF416402E
:10260000FAE74FF46140F7E74FF4E130F4E74FF4B5
:102610006130F1E74FF4E120EEE7398043E04FF419
:10262000005038803FE029803DE04FF4C06001E079
:102630004FF48060288036E0317034E086F800C0C6
:1026400031E086F800E02EE011702CE082F800C046
:1026500029E082F800E026E06946CDA005F00EFAF8
:1026600010B1009801F005F800F03CFE19E0694651
:10267000BDA005F003FA0028F6D0009801F043F859
:10268000F2E7107801F0CEF858B1307801F08EF80A
:1026900038B12A883988206800F0D6FE08B10120B8
:1026A000F8BD00F08FFC0020F8BD2DE9F05FDFF8E9
:1026B000F0A2DFF8F0924FF48C7BB949891C881E98
:1026C00005F0BCFEBAF900100446A1F1130057460C
:1026D000584505D8B7F90200132801DBDB2804DDD3
:1026E000032CEAD100F06EFCE7E7B9F800204E4673
:1026F0008A4229DC72888A4226DBB288824223DC45
:10270000B6F8DE2082421FDB002CD6D0032CD4D0BA
:102710000025D04605EBC50006EB80072346B8F937
:102720000220B8F90010384605F034FD38B13846BB
:1027300005F0B5FD387A10B12846FFF73EFF6D1C55
:10274000EDB2062DE6D9B8E7B6F8FC208A422BDCBC
:10275000B6F8FE208A4227DBB6F80021824223DC4D
:10276000B6F8262182421FDB002CA6D0032CA4D071
:102770000725D04605EBC50006EB80072346B8F9D0
:102780000220B8F90010384605F004FD38B138468B
:1027900005F085FD387A10B12846FFF70EFF6D1C55
:1027A000EDB2082DE6D988E7B6F844218A422BDC41
:1027B000B6F846218A4227DBB6F84821824223DC5C
:1027C000B6F8922182421FDB002C8DD0032C8BD0D7
:1027D0000925D04605EBC50006EB80072346B8F96E
:1027E0000220B8F90010384605F0D4FC38B138465C
:1027F00005F055FD387A10B12846FFF7DEFE6D1C56
:10280000EDB20B2DE6D958E7B6F8B0218A422BDCA1
:10281000B6F8B2218A4227DBB6F8B421824223DC23
:10282000B6F8FE2182421FDB002C8CD0032C8AD00C
:102830000C25C84605EBC50108EB81062346B7F910
:102840000220B7F90010304605F0A4FC38B130463C
:1028500005F025FD307A10B12846FFF7AEFE6D1C5D
:10286000EDB20E2DE6D928E7B6F81C228A422BDC01
:10287000B6F81E228A4227DBB6F82012814223DCFA
:10288000B6F86A1281421FDB002C8CD0032C8AD050
:102890000F25D04605EBC50006EB80072346B8F9A7
:1028A0000220B8F90010384605F074FC38B13846FB
:1028B00005F0F5FC387A10B12846FFF77EFE6D1C56
:1028C000EDB2112DE6D9F8E6002C9CD0032C4FF088
:1028D0001405D04668D105EBC50006EB80072346FA
:1028E000B8F90220B8F90010384605F053FC48B199
:1028F000384605F0D4FC2846FFF75FFE18B10120EA
:10290000BDE8F09F53E050E02020415420436F6D1C
:102910006D616E64000000001844002020446F20A8
:10292000796F752077616E7420746F20636F6E6E9F
:102930006563742074686973206465766963653FB4
:102940000000000020446F20796F752077616E745D
:1029500020746F20706169722074686973206465E7
:10296000766963653F000000426C7565746F6F7433
:102970006820506173736B6579000000400100208E
:102980003A0100203C0100204501002044010020C4
:10299000426C7565746F6F7468204E616D650000E0
:1029A00046010020C446002022E0152D1ED06D1CDB
:1029B000EDB2152D8FD947461225B04605EBC5015E
:1029C00008EB810006462346B7F90220B7F900104C
:1029D00005F0E0FB28B1304605F061FC2846FFF722
:1029E000ECFD6D1CEDB2132DE8D966E6002087E7FB
:1029F00005EBC50006EB80072346B8F90220B8F9BD
:102A00000010384605F0C6FB10B1384605F047FC0B
:102A10006D1CEDB2152DEBD947461225B04605EBDE
:102A2000C50108EB810006462346B7F90220B7F935
:102A3000001005F0AFFB10B1304605F030FC6D1C06
:102A4000EDB2132DEBD938E62DE9F04100248A4E82
:102A50008A4D2746072866D2DFE800F06A043F4621
:102A6000500F6F008648007828B10020FFF700FD66
:102A700000F067FA57E00120F8E700F029FA204655
:102A8000012480A100F03AFA042001F012FA002893
:102A900049D020467EA100F031FA0024204601F002
:102AA0001DFA641CE4B20C2CF8D300F011FA0024D7
:102AB00004EBC40006EB800191F8231059B100210A
:102AC00005EB80004172077205F0E9FB641CE4B27B
:102AD0000C2CEDD327E00121F2E700F073FAFFF7A9
:102AE000E4FD40B100F0FEFB00F045FD0146FF2093
:102AF00000F004FA17E000F0F5FB14E000F0E8F94C
:102B0000002404EBC40006EB800191F8231069B1A6
:102B1000002105EB80004172077205F0C0FB641CC8
:102B2000E4B20C2CEDD30120BDE8F0810121F0E7E7
:102B300000F07EF800F0D6FB9AE70020F4E72DE9DC
:102B4000F0415949881E05F079FC574D0646AD1FE6
:102B5000B5F904004A2834DB002E67D0DFF81C8169
:102B6000032E4FF0000417D104EBC40108EB8100E1
:102B700007463346B5F90620B5F9041005F00AFBFF
:102B800028B12046FFF7D8FC384605F088FB641CC6
:102B9000E4B20C2CE8D349E004EBC40108EB81005B
:102BA00007463346B5F90620B5F9041005F0F2FAE8
:102BB00010B1384605F073FB641CE4B20C2CEBD367
:102BC00034E09EB3394F032E1AD1002404EBC40025
:102BD00007EB80003346B5F90620B5F9041005F07F
:102BE000D9FA48B104EBC40007EB800005F057FBAD
:102BF0002046BDE8F04127E7641CE4B2072CE5D38A
:102C00000024A84604EBC40007EB800005463346C9
:102C1000B8F90620B8F9041005F0BCFA10B128463E
:102C200005F03DFB641CE4B2072CEBD301207BE7ED
:102C30001CB5FFF72FFB50B101281CD11CA107E0E8
:102C4000012000E00020BDE81C40FFF7EFBB21A100
:102C500029A0CDE900016423C82245213B2003F0CF
:102C6000EDFF002807D00020FFF7EDFBFFF712FB78
:102C70000028E7D1E4E71CBD18440020DC4900200F
:102C8000380100205363616E6E696E672E2E2E0030
:102C900047657474696E6720446576696365206E64
:102CA000616D652E2E2E00004C010020C8450020CD
:102CB00020446F20796F752077616E7420746F20C7
:102CC0005475726E20426C7565746F6F7468204F16
:102CD00066663F0020446F20796F752077616E74BF
:102CE00020746F205475726E20426C7565746F6F1E
:102CF0007468204F6E3F00002020484330350000AC
:102D00002DE9F04F052429220021DFF82C95DFF86A
:102D10002C8504F1400C4CF2186547F6EF370E464F
:102D200001EBC10029F8204009EB80008280A0F867
:102D300002C01032C2800A3292B2032901D00529A2
:102D400001D10B3292B28681C58158F821300361DE
:102D50008682C78283618683491CC783C9B20362A6
:102D60000729DDD3DFF8D0A4DFF8D0E41724382218
:102D700000204FF0D90C4FF0C9090AF1FC0AAB460C
:102D80000EF11C0E16E0072806D00C2804D00F28E0
:102D900002D009280CD002E04534A4B2382214280D
:102DA00057D0152863D0122872D0132802D17CE0A6
:102DB000153292B200EBC00304F140052AF823401B
:102DC0000AEB83039A805D801032DA80521D92B242
:102DD00000EBC0010AEB810153468E81A1F80EB0D1
:102DE0005EF820500D618E82CF828D618E83401CF3
:102DF000CF83C0B20D621628C5D34A242923DFF839
:102E00004084DFF840C4002104F1F0074FF6FF7959
:102E10004FF01F0A01EBC10208EB820028F82240A4
:102E20008380103347809BB2C3800CEB8202A0F8F2
:102E30000C900F32C6810261A0F814A0C682826194
:102E40008683491CC683C9B202620C29E2D3BDE85D
:102E5000F08FF94D4FF0E608FC3505F53471A5F813
:102E6000D282A5F8D6C2A625AAF8D0520CE0F24D1F
:102E700040F22918FC3505F53D71A5F8F682A5F854
:102E8000FAC2E925AAF8F452A1F80490A0E7FFE7F6
:102E9000E94DB3F8B081A3F88882FC35BAF86C31FB
:102EA00005F52271A5F88C320BE0E34DB3F81C82D6
:102EB000A3F8AC82FC35BAF86C3105F52B71A5F896
:102EC000B03208F14008A1F802801033CB807FE7D0
:102ED00008B5C0200090F02329224A21002004F0E8
:102EE0001BF90020D64A012100EBC00302EB83034B
:102EF000401CC0B259720C28F6D308BD2DE9FF4121
:102F00000C001CD0002501274FF6FF760C2808D3B3
:102F1000FFF7DEFFCDE90254C023F02229214A2029
:102F200009E0CDE90251C021A1EB0013292101EBF9
:102F30000011F0224A20CDE9007604F01EFCBDE825
:102F4000FF8170B5FFF7C4FFFFF7A4F958B3002065
:102F5000BA4CB94D743454F820002861FFF79AF93F
:102F600018B3002054F82000A861FFF779FAF0B1F7
:102F7000FFF790F9D8B1002085F8510085F8750069
:102F800085F8990085F8BD00A06868630024E863AF
:102F900004EBC40005EB800005F081F9641CE4B289
:102FA000072CF5D370BD0120D2E70120DAE701201C
:102FB00085F8510085F8750085F8990085F8BD0001
:102FC000E068E2E7F8B5CC20112200904FF48E7350
:102FD00011464FF2DE7004F065F8CA20122200900C
:102FE0004FF48D731146002004F05CF8C8204FF4B4
:102FF0008C7413220090234611464FF6FF7004F0A4
:103000008BF810201322009023461146002004F074
:1030100083F88DA0132100901F230122084604F09D
:103020008AFB89A000901F2301221321142004F0A1
:1030300082FB814CA220FC340090A08840F2EF3645
:10304000123882B220884423801E81B2304604F0B8
:1030500063F883A00090A0884FF47847103801B23D
:10306000B4F900003B46012204F065FB39200090D2
:10307000B4F800014423123882B2B4F8FC00801E78
:1030800081B2304604F048F878A00090B4F800010E
:103090003B46103801B2B4F9FC00012204F04BFBAE
:1030A0004E250095B4F848014423123882B2B4F892
:1030B0004401801E81B2304604F02EF86DA00090CD
:1030C000B4F848013B46103801B2B4F9440101227A
:1030D00004F031FB0095B4F8B4014423123882B2F5
:1030E000B4F8B001801E81B2304604F015F863A038
:1030F0000090B4F8B4013B46103801B2B4F9B00105
:10310000012204F018FB0095B4F820024423123881
:1031100082B2B4F81C02801E81B2304603F0FCFF7C
:1031200058A00090B4F820023B46103801B2B4F920
:103130001C02012204F0FFFA24200090B4F88C0253
:103140008923123882B2B4F88802801E81B23046D8
:1031500003F0E2FF4DA00090B4F88C023B4610381B
:1031600001B2B4F98802012204F0E5FA0020014618
:1031700000EBC00204EB8202401CC0B211721628A0
:10318000F6D3454801680120B1F5614F1CD009DC38
:10319000B1F5165F10D0B1F5964F0FD0B1F5164FBF
:1031A0001DD10EE0B1F5E13F11D0B1F5613F11D075
:1031B000B1F5E12F13D110E0207210E084F82C005B
:1031C0000DE084F850000AE084F8740007E084F809
:1031D000980004E084F8BC0001E084F8E0002F4986
:1031E000098819B1B1F5005F05D102E084F8040146
:1031F00001E084F828012A49098831B1B1F5806FCE
:1032000009D0B1F5C06F08D102E084F84C0104E0A8
:1032100084F8700101E084F894012249097821B111
:10322000012905D0022941D13EE084F824023DE085
:1032300084F848023AE00000C84500205001002010
:10324000DC4900201844002020204843303520432A
:103250006F6E66696775726174696F6E0000000059
:10326000424155445241544500000000202053542F
:103270004F50000020504152495459002020524FD5
:103280004C45000020432D4D4F4445002020202078
:10329000204348414E474500400100203A010020AC
:1032A0003C0100204401002084F86C024049097868
:1032B00021B1012905D0022908D105E084F8B8011F
:1032C00004E084F8DC0101E084F80002002505EB4D
:1032D000C50004EB800004F0E2FF6D1CEDB2162D7A
:1032E000F5D3F8BD38B54FF6FF74204605F0CCF99C
:1032F00023210122009140F23D131146002003F0EA
:103300000BFF2CA100911F2300220A211A2004F098
:1033100012FA28A100911F2300220A211B2004F089
:103320000AFA24A000901F2300220A21182004F08A
:1033300002FA20A000901F2300220A21192004F085
:10334000FAF921A000902346022203214FF4937042
:1033500004F0F1F91CA0009023460222032140F260
:10336000271004F0E8F9C0200090F02329224A2118
:10337000002003F0D1FE154D002404EBC40005EB42
:10338000800004F08CFF641CE4B2072CF5D3104DD0
:10339000002404EBC40005EB8000417A09B904F075
:1033A0007EFF641CE4B20C2CF3D3BDE83840C8E5C2
:1033B00045010020426C7565746F6F746820536519
:1033C0007474696E67000000564E4400C8450020C2
:1033D000DC4900202DE9F05F0025984617468B4612
:1033E00006462C466D1C1BF805000028FAD1681C07
:1033F000B84200D987B2B8F1000F20D003F095FB96
:1034000081468A467D1B08E03019641C594601F04C
:10341000E5F888B9A542F7D800244246002348467B
:10342000514603F086FB0028F4D00BE03019641CF1
:10343000594601F0D3F818B12046BDE8F09F7D1B36
:10344000A542F3D80020F8E770B5FE4D04460023EE
:103450002868B4F5614F18D009DCB4F5165F1BD0AD
:10346000B4F5964F0DD0B4F5164F15D10BE0B4F569
:10347000E13F0CD0B4F5613F0BD0B4F5E12F0BD197
:1034800009E0686808E0A86806E0E86804E02869E0
:1034900002E0686900E0A869B1F5005F37D0302428
:1034A000B2F5806F37D0B2F5C06F32D03021E64D23
:1034B0000278EA545B1C10F8012BDBB22C2AF7D1FE
:1034C000EC545B1CD8B22A54401CC0B22954401C96
:1034D000C0B200212954401CC6B2AC19C6F5B47163
:1034E0002046FEF70AFFD9A0FEF7D8FED648FEF721
:1034F000D5FED9A0FEF7D2FE4FF4FA730022D7A171
:103500002046FFF767FF40B1002101202FE0312462
:10351000C6E73121CBE73221C9E7A85D40B10023DE
:1035200020461A46CFA1FFF755FF18B1D0A11DE0E4
:10353000D4A11BE0002320461A46D6A1FFF74AFF7C
:1035400008B1D8A112E0002320461A46DAA1FFF7FD
:1035500041FF08B1DCA109E0002320461A46DFA1A3
:10356000FFF738FF08B1E1A100E021460020BDE8E7
:103570007040FEF7D1BF2DE9F04100244FF4B4773D
:1035800025463946B048FEF7B8FEDEA0FEF786FEB7
:1035900050233A46DFA1AC48FFF71CFFDFA0FEF73F
:1035A0007DFE50233A46E0A1A748FFF713FFE0A0B5
:1035B000FEF774FE50233A46E0A1A348FFF70AFF46
:1035C000E0A0FEF76BFE50233A46E1A19E48FFF7CC
:1035D00001FFE1A0FEF762FE50233A46E1A19A48BE
:1035E000FFF7F8FEE1A0FEF759FE50233A46E2A1AC
:1035F0009548FFF7EFFEE2A0FEF750FE50233A4653
:10360000E2A19148FFF7E6FEE2A0FEF747FE502355
:103610003A46E3A18C48FFF7DDFEE3A0FEF73EFE4D
:1036200050233A46E3A18848FFF7D4FEE3A0FEF713
:1036300035FE50233A46E4A18348FFF7CBFE824E85
:1036400086A1301900F0CAFF204484B23019E0A1ED
:1036500000F0C4FF204480B2315C71556D1C401CE9
:1036600084B2ADB2BC42EBD3002070557648BDE8C1
:10367000F08170B5744E002401783155641C10F847
:10368000011BE4B20029F7D13519C4F5B4712846FD
:10369000FEF733FECFA0FEF701FE6B48FEF7FEFDFE
:1036A0006DA0FEF7FBFD4FF4FA7300226BA12846D4
:1036B000FFF790FE10B10021012020E0305D40B105
:1036C000002328461A4667A1FFF784FE18B168A1B7
:1036D00014E06CA112E0002328461A46C0A1FFF7AF
:1036E00079FE08B1C1A109E0002328461A46CDA100
:1036F000FFF770FE08B1CEA100E029460020BDE82A
:103700007040FEF709BF70B54F4E00240178315567
:10371000641C10F8011BE4B20029F7D13519C4F577
:10372000B4712846FEF7E9FDC6A0FEF7B7FD46488E
:10373000FEF7B4FD48A0FEF7B1FD4FF4FA73002286
:1037400046A12846FFF746FE10B10021012029E0DE
:10375000305D40B1002328461A4642A1FFF73AFEE9
:1037600018B143A11DE047A11BE0002328461A46DB
:10377000B7A1FFF72FFE08B1B8A112E00023284639
:103780001A46BCA1FFF726FE08B1BDA109E000233F
:1037900028461A46C2A1FFF71DFE08B1C4A100E0E9
:1037A00029460020BDE87040FEF7B6BE10B50446BD
:1037B0004FF4B4712448FEF7A0FD24B1012C04D0CD
:1037C000022C04D006E0C7A002E0C9A000E0CBA014
:1037D000FEF764FD4FF4FA73002220A11A48FFF7A8
:1037E000F9FD10B10021012018E01748007840B120
:1037F00000231A461BA11448FFF7ECFD18B11CA1C9
:103800000BE020A109E000231A46BFA10E48FFF7F4
:10381000E1FD08B1C0A100E00B490020BDE8104067
:10382000FEF77ABE10B504464FF4B4710648FEF7B1
:1038300064FD24B1012C03D0022C02D07FE177E19A
:1038400078E179E1D40100208C4B002041542B55C4
:103850004152543D000000000D0A00004F4B0D0A7C
:10386000000000004552524F523A2830290D0A00FC
:103870002020415420636F6D6D616E64206572720B
:103880006F72000020204E6F20726573706F6E7330
:10389000650000004552524F523A283132290D0A34
:1038A000000000002020496E76616C69642062612E
:1038B00075642072617465004552524F523A283146
:1038C00033290D0A000000002020496E76616C69E2
:1038D000642073746F702062697400004552524F07
:1038E000523A283134290D0A000000002020496E88
:1038F00076616C69642070617269747920626974A0
:103900000000000041542B56455253494F4E3F0D85
:103910000A00000056455253494F4E0041542B4176
:103920004444523F0D0A000041444452000000004C
:1039300041542B434C4153533F0D0A00434C4153D8
:103940005300000041542B524F4C453F0D0A0000DC
:10395000524F4C450000000041542B4E414D453F15
:103960000D0A00004E414D450000000041542B500F
:103970005357443F0D0A00005053574400000000C5
:1039800041542B53544154453F0D0A005354415464
:103990004500000041542B554152543F0D0A000090
:1039A000554152540000000041542B494E514D3FA7
:1039B0000D0A0000494E514D0000000041542B43B8
:1039C0004D4F44453F0D0A00434D4F444500000014
:1039D0000D00000041542B4E414D453D00000000BC
:1039E0004552524F523A2833290D0A002020546F75
:1039F0006F206C6F6E67206C656E677468206F66F1
:103A000020646576696365206E616D6520286D6F41
:103A10007265207468616E20333220627974657338
:103A2000290000004552524F523A2834290D0A000D
:103A300020204E6F20646576696365206E616D6538
:103A40000000000041542B505357443D000000003B
:103A50004552524F523A2832290D0A002020506117
:103A600073736B6579207772697465206572726F04
:103A7000720000004552524F523A2846290D0A0062
:103A80002020546865206C656E677468206F66201E
:103A9000506173736B657920697320302E000000CC
:103AA0004552524F523A283130290D0A0000000089
:103AB0002020546F6F206C6F6E67206C656E67748A
:103AC00068206F6620706173736B657920286D6F55
:103AD0007265207468616E20313620627974657376
:103AE0002900000041542B524F4C453D300D0A0037
:103AF00041542B524F4C453D310D0A0041542B523D
:103B00004F4C453D320D0A004552524F523A283132
:103B100031290D0A000000002020496E76616C6991
:103B200064206D6F64756C6520726F6C65000000B9
:103B3000F8A002E0FBA000E0FEA0FEF7AFFB4FF410
:103B4000FA730022AFF2EC21FE48FFF743FC10B1FC
:103B50000021012012E0FB48007850B100231A46F2
:103B6000AFF20031F748FFF735FC28B1AFF2003172
:103B700003E0AFF2F02100E0F2490020BDE8104080
:103B8000FEF7CABC10B54FF4B471EE48FEF7B5FBB2
:103B9000EDA0FEF783FB4FF4FA730022AFF244313D
:103BA000E848FFF717FC10B1002101201AE00023BC
:103BB0001A46E8A1E348FFF70DFC0028F4D1E148DC
:103BC000007850B100231A46AFF26831DD48FFF7A4
:103BD00001FC28B1AFF2683103E0AFF2583100E0E8
:103BE000D8490020BDE81040FEF796BC10B54FF450
:103BF000B471D448FEF781FBDAA0FEF74FFB4FF417
:103C0000FA730022AFF2AC31CE48FFF7E3FB10B1FC
:103C10000021012012E0CB48007850B100231A4661
:103C2000AFF2C031C748FFF7D5FB28B1AFF2C031C2
:103C300003E0AFF2B03100E0C2490020BDE810401F
:103C4000FEF76ABC2DE9F041BE4D4FF0310810B1CE
:103C500085F8008001E0302028700926B1FBF6F4D9
:103C600006FB14162C2304F1300030366B70C7B2FB
:103C7000092907D819B13031A97003240BE085F860
:103C80000280FAE7632903D33920A870E87001E0C5
:103C9000AF70EE70042410462B55641C08F079FDBB
:103CA000B34AB44B08F0D9FC08F0E2FDC0B23028AA
:103CB00012D818B1092807D818B100E00120303017
:103CC00008E005F804800AE0302805D9342028559A
:103CD000641C3820285502E02F55641C2E55641CA6
:103CE00000202855641C2E19C4F5B4713046FEF727
:103CF00004FBA1A0FEF7D2FA9248FEF7CFFAAFF28A
:103D0000A840FEF7CBFA4FF4FA730022AFF2B441A9
:103D10003046FFF75FFB10B1002101202CE0285D49
:103D200050B1002330461A46AFF2C841FFF752FBAC
:103D300028B1AFF2C4411EE0AFF2B8411BE000234E
:103D400030461A468FA1FFF745FB08B191A112E05A
:103D5000002330461A4695A1FFF73CFB08B196A117
:103D600009E0002330461A4699A1FFF733FB08B15A
:103D70009BA100E031460020BDE8F041FEF7CCBB3E
:103D80002DE9F05F064600244FF4B4772546394606
:103D90006C48FEF7B2FA98A0FEF780FA994B002221
:103DA00005EBC50000219B4603EB8000491C89B24E
:103DB000924680F823200F29F8D36D1CADB20C2D4C
:103DC000EED30025761C06EB4600C0EBC6104FF67E
:103DD000FF71A84601EAC0032A46AFF28051594854
:103DE000FFF7F8FA08B188A15BE000233A46AFF28A
:103DF00094515448FFF7EEFA0704DFF848913F0C5E
:103E000038D13FE04E4614E03019641CB146A4B2EC
:103E100082A100F0E3FB0004000C0AD02044401E05
:103E200008EBC8020BEB8206012184B286F823104E
:103E300013E0BC421ED2E7E70F2D0CD219F80400A4
:103E40003A2802D018B1705503E02C20FBE706F8A1
:103E500005A06D1CADB2641CA4B209EB040071A1F5
:103E600000F0BCFB08B9BC42E6D308F101001FFA20
:103E700080F80025BC4202D2B8F10C0FC2D3002159
:103E800001200FE000231A46AFF228612D48FFF70A
:103E9000A1FA10B1AFF2286103E099F8000028B14F
:103EA00028490020BDE8F05FFEF736BBAFF22C6179
:103EB000F7E710B50446FFF765FE48B122460C212E
:103EC0000020FFF7BFFE18B12046BDE8104057E7BD
:103ED000BDE8104054A10020FEF71EBB2DE9F041C3
:103EE00000EBC0014748002400EB8105264695F809
:103EF000230000280CD04FF4B47739461148FEF760
:103F0000FCF94CA0FEF7CAF92846FEF7C7F997E07E
:103F1000D7E0000041542B434D4F44453D300D0A3E
:103F20000000000041542B434D4F44453D310D0AE4
:103F30000000000041542B434D4F44453D320D0AD3
:103F4000000000008C4B002041542B494E49540D79
:103F50000A0000004552524F523A283137290D0AC3
:103F60000000000041542B494E51430D0A0000004F
:103F70007B14AE47E17AF43F41542B494E514D3DFD
:103F8000000000004552524F523A283138290D0A9C
:103F9000000000002020496E76616C696420696E23
:103FA0007175697265206D6F646500004552524FEE
:103FB000523A2842290D0A002020546F6F206C6568
:103FC0006E677468206F6620646576696365730048
:103FD0004552524F523A283139290D0A000000004B
:103FE0002020546F6F206C6F6E6720696E71756949
:103FF00072652074696D650041542B494E510D0A5C
:10400000000000001844002020204E6F20646576D8
:1040100069636520666F756E640000002B494E5120
:104020003A0000002C00000020205363616E2066DF
:1040300061696C0041542B524E414D453F000000D8
:10404000AFF2EC70FEF72AF94FF47A633A46AFF21A
:10405000F471FA48FFF7BEF9F84FA04600B33819DB
:10406000F7A100F0BBFA2044C4B23819AFF618012A
:1040700000F0B4FA2044C4B23819AFF6200100F0C1
:10408000ADFA2044C0B2AA19395C401C761CF6B2C5
:10409000D173C4B2132EE2D3A91981F80F8010E0B6
:1040A000285D2919A41CE4B2C8730F2CF8D3291970
:1040B000002381F80F801A46E3A1E048FFF78AF950
:1040C00010B10021012018E000231A46AFF66C0160
:1040D000DA48FFF77FF910B1AFF66C010CE03878E1
:1040E00040B100231A46DCA1D448FFF773F940B170
:1040F000DCA10EE0AFF674010020BDE8F041FEF750
:104100000BBA00231A46E1A1CC48FFF763F920B1AE
:10411000E1A10120FEF700FAD3E700231A46E8A147
:10412000C648FFF757F908B1E8A1F2E7C349E3E74A
:1041300000EBC00110B5EF4800EB810494F82300B8
:10414000002856D04FF4B471BC48FEF7D6F8EAA068
:10415000FEF7A4F82046FEF7A1F8AFF60410FEF72C
:104160009DF84FF47A630022AFF61011B348FFF7C1
:1041700031F930B114F8230F401CC0B22070002177
:104180003BE000231A46DFA1AC48FFF723F910B14A
:104190000021012031E0A948007850B100231A46DF
:1041A000AFF64011A548FFF715F928B1AFF6401159
:1041B00022E0AFF630111FE000231A46A6A19F4867
:1041C000FFF708F908B1A7A110E000231A46AFA134
:1041D0009A48FFF7FFF808B1AFA107E000231A469D
:1041E000B7A19648FFF7F6F828B1B8A10020FEF76E
:1041F00093F9C6A100E091490020BDE81040FEF708
:104200008BB92DE9F04107468C4E2C200C463070BE
:10421000632901D9632409E034B1092C06D804F1DB
:104220003000707002200CE00124F8E70921B4FB93
:10423000F1F000F1300201FB104072703030B070CC
:10424000032000213154401CC0F5B47135182846B4
:10425000FEF753F8B1A0FEF721F8A64907EBC70017
:1042600001EB8000FEF71AF87448FEF717F8A6A0D5
:10427000FEF714F8641C04EB4400C0EBC4104FF6C6
:10428000FF7101EAC0030022AFF630212846FFF794
:10429000A1F810B1A4A1012018E0307840B10023AA
:1042A00028461A4697A1FFF795F820B1A2A10CE085
:1042B000AFF6302109E0002328461A46AFF65C210C
:1042C000FFF788F830B1AFF658210020BDE8F04183
:1042D000FEF722B9002328461A465FA1FFF77AF8B5
:1042E00008B160A110E0002328461A4667A1FFF735
:1042F00071F808B168A107E0002328461A4670A1AA
:10430000FFF768F818B171A10020FEF705F94B49D5
:10431000DBE710B504464FF4B4714848FDF7EDFFF4
:1043200089A0FDF7BBFF734904EBC40001EB8000DB
:10433000FDF7B4FF74A0FDF7B1FF4FF47A630022DC
:10434000AFF6E8213D48FFF745F810B10021012004
:1043500019E03A48007850B100231A46AFF6FC2124
:104360003648FFF737F828B1AFF6FC210AE0AFF680
:10437000EC2107E000231A4662A13048FFF72AF833
:1043800028B174A10020BDE81040FEF7C5B8002395
:104390001A4631A12948FFF71DF808B131A110E0F4
:1043A00000231A4639A12548FFF714F808B13AA1AD
:1043B00007E000231A4642A12048FFF70BF818B186
:1043C00042A10020FEF7A8F81C49DBE710B504461F
:1043D0004FF4B4711948FDF790FF62A0FDF75EFF3E
:1043E000444904EBC40001EB8000FDF757FF46A0F1
:1043F000FDF754FF4FF47A630022AFF6A0310F4867
:10440000FEF7E8FF10B15AA10120BBE000231A46D5
:10441000AFF6B0310948FEF7DDFF10B1AFF6B031AD
:10442000AFE00648007838B100231A4635A10348AA
:10443000FEF7D0FF08B1A3E0A8E0AAE08C4B002073
:104440002B524E414D453A004552524F523A283177
:1044500041290D0A000000004552524F523A2835BA
:10446000290D0A002020426C7565746F6F746820F6
:10447000616464726573733A204E41502069732001
:10448000746F6F206C6F6E672E0000004552524FA4
:10449000523A2836290D0A002020426C7565746F47
:1044A0006F746820616464726573733A205541507B
:1044B00020697320746F6F206C6F6E672E00000090
:1044C0004552524F523A2837290D0A002020426C9B
:1044D0007565746F6F746820616464726573733A94
:1044E000204C415020697320746F6F206C6F6E6791
:1044F0002E0000001844002041542B465341443DF7
:10450000000000004641494C0D0A000020204E6F7B
:104510007420696E2072616E6765000041542B50F3
:104520004149523D00000000202050616972207313
:104530007563636565642100202050616972207491
:10454000696D656F7574210041542B42494E443D9D
:1045500000000000202041542062696E6420466102
:10456000696C000041542B4C494E4B3D000000004B
:104570002020436F6E6E6563746564210000000047
:104580001EA10020BDE81040FDF7C6BFAFF60C51DC
:10459000F7E700231A46AFF240111C48FEF71AFF56
:1045A00010B1AFF2401114E000231A46AFF224110B
:1045B0001648FEF70FFF10B1AFF2241109E00023F7
:1045C0001A46AFF204111148FEF704FF20B1AFF212
:1045D00004110020FDF7A0FF0C49D2E710B50246F8
:1045E000002007E014789C4201D0002010BD491C37
:1045F000521C401C0B78002BF4D110BD20204154DC
:10460000204C696E6B204661696C00008C4B002069
:10461000FEB54FF6FF76304604F036F8232101222E
:1046200000914FF49F731146002002F075FDFEA12A
:1046300000911F2300220A21422003F07CF8FAA1F6
:1046400000911F2300220A21432003F074F8F6A0F2
:1046500000901F2300220A21402003F06CF8F2A0F2
:1046600000901F2300220A21412003F064F8F1A0EA
:1046700000903346022203214FF4937003F05BF85D
:10468000ECA0009033460222032140F2271003F0F1
:1046900052F8E94D002404EBC40005EB800003F060
:1046A000FEFD641CE4B2032CF5D3E34F0024D03F9D
:1046B00007EB4415284603F035FD686908F076F8E5
:1046C00000B2DEA10096CDE90110E8880023C01DEC
:1046D00001B2B5F90000012203F00BF8641CE4B24A
:1046E000062CE5D3FEBD2DE9F041D34E5620103EF9
:1046F000042530704E2070704420B0705320F0704C
:104700000024A6F1C00707EB4410406908F067F8E1
:1047100070556D1C641CE4B2EDB20C2CF3D3BDE8F3
:10472000F041C54810211038FDF7CEBD2DE9F0410C
:10473000C349881E03F082FEBF4EC14D0024D03E07
:104740000746AD1E06EB44103B46B5F90220B5F90D
:10475000001003F0F4FB10B10120BDE8F081641CEF
:10476000E4B2062CEED30020F7E770B520B10128A3
:1047700007D0022813D114E0FDF7B5FEFFF748FF7C
:104780000DE0AD4E0024AF4DD03E06EB441029465F
:10479000456103F066FC641CE4B2062CF5D30120ED
:1047A00070BD002070BD2DE9F041A549091D881E8E
:1047B00003F044FE060035D0A14F9F4DBF1E032ECF
:1047C0001AD1002404EBC40005EB80003346B7F98E
:1047D0000620B7F9041003F0DDFC48B104EBC40077
:1047E00005EB800003F05BFD2046BDE8F041BCE72F
:1047F000641CE4B2032CE5D30024A84604EBC401F6
:1048000008EB810005463346B7F90620B7F90410D6
:1048100003F0C0FC10B1284603F041FD641CE4B273
:10482000032CEBD3012098E72DE9F0410024FCF79D
:104830004BF8814DDFF81082D03D40B141466869A8
:1048400007F018FD0146284603F00BFC0124FCF795
:104850003FF848B14146686907F05EFD0146764879
:10486000D03803F0FEFB641CFCF730F8724EB03E0B
:1048700040B14146686B07F0FDFC0146304603F04D
:10488000F0FB641CFCF71EF840B14146686B07F072
:1048900043FD0146304603F0E4FB641CFCF720F8BE
:1048A000654E903E40B14146686D07F0E3FC01461D
:1048B000304603F0D6FB641CFCF70CF840B14146CF
:1048C000686D07F029FD0146304603F0CAFB641C01
:1048D000FBF797FF07F030FF5C4E10F0FF4F0BD057
:1048E000314607F01FFD696F07F0C4FC01465248CE
:1048F000703803F0B6FB641CFBF7F0FF4E4F303FFF
:1049000048B14146D5F8B40007F0B4FC014638463A
:1049100003F0A7FB641CFBF7DFFF50B14146D5F85D
:10492000B40007F0F9FC0146384603F09AFB641C1A
:10493000E4B2FBF77FFF07F0FFFE10F0FF4F0DD052
:10494000314607F0EFFCD5F8941007F093FC0146D0
:104950003948503803F085FB641CE4B22046FCE67D
:104960002DE9FF47D2257E23DFF8D4900021DFF820
:10497000C88005F158074CF2186C09F1060947F692
:10498000EF360C4601EBC10028F8205008EB800000
:10499000838047801033C3808481A0F80EC059F80B
:1049A000212002618482C682826116338483491C7D
:1049B000C683C9B21BB202620329E3D31E4E07228B
:1049C00000212B25D927DFF888C04FF07E53D03E39
:1049D00006EB4110491C0280858018324280C78056
:1049E0008361C0E903C4D21DC9B2447712B206295B
:1049F000EED3FFF70DFE4FF6FF7748E0FFF714FF09
:104A0000012803D0FFF792FE012830D1002406EBE5
:104A10004415686907F0CAFE00B208A10097CDE905
:104A20000110E888C01D15E041726D20436F6E745F
:104A3000726F6C00564E4400C44D00202533640054
:104A4000F201002000004842CDCCCC3D0AD7233CE7
:104A50000000C84201B2B5F900000023012202F0B3
:104A600048FE641CE4B2062CD1D3FFF73CFEFBF7F2
:104A7000A9FB07F016FFCDE9020108A0CDE90070FF
:104A80004FF4784301222B21C12002F032FEFFF7C0
:104A90008AFE0028B2D1BDE8FF870000564E4420B0
:104AA000506C61793A2025322E3166205600000084
:104AB0002DE9FF41FBF786FB07F0F3FECDE902018C
:104AC000FEA04FF6FF77CDE900704FF478484346DB
:104AD00001222A21782002F00CFEFBF786FEFB4C17
:104AE000B4F90010884201D0012600E00026FBF74F
:104AF00088FE0146B4F90200814201D0012100E0A4
:104B000000210E434FF0090517D02B21484390FB9D
:104B1000F5F0C0F15C0082B2208810FB01F090FB40
:104B2000F5F0393081B20623384602F077FBFBF707
:104B30005CFE2080FBF765FE6080FBF76FFEB4F93A
:104B40000410884201D0012600E00026FBF772FE27
:104B50000146B4F90600814201D0012100E00021A4
:104B60000E4318D02B21484390FBF5F0C0F15C00B8
:104B700082B2A08810FB01F090FBF5F000F2071064
:104B800081B20623384602F049FBFBF747FEA080BE
:104B9000FBF750FEE080FBF793FE002861884FF0A2
:104BA0002B0011FB00F090FBF5F0C0F15C0082B22D
:104BB00020884FF02B0110FB01F090FBF5F000F185
:104BC000390081B24FF0060328D0404602F026FBA0
:104BD000FBF788FE0028E0884FF02B0110FB01F066
:104BE00090FBF5F0C0F15C0082B2A08810FB01F0F0
:104BF00090FBF5F000F2071081B24FF006030FD0E2
:104C0000404602F00BFBFBF761FE4FF00E034FF046
:104C1000BF024FF0150128B1002004E00020D5E7C5
:104C20000020EEE7384602F0F9FAFBF74BFE4FF0B2
:104C30000E034FF0BF024FF04D0108B1002000E01D
:104C4000384602F0EBFAFBF73FFE4FF00E034FF051
:104C5000A3024FF0310108B1002000E0384602F015
:104C6000DDFAFBF735FE4FF00E034FF0DB024FF09D
:104C7000310108B1002000E0384602F0CFFAFBF71E
:104C80002DFE4FF00E034FF0BF024FF0F30108B1BD
:104C90001F2000E0384602F0C1FAFBF71DFE40F28B
:104CA0002B114FF00E034FF0BF0208B1404600E059
:104CB000384602F0B3FAFBF713FE40F20F144FF040
:104CC0000E034FF0A302214610B14FF4FC6000E048
:104CD000384602F0A3FAFBF7FDFD4FF00E034FF04C
:104CE000DB02214610B14FF6E07000E0384604B018
:104CF000BDE8F04102F092BA2DE9F041734A00217B
:104D0000B2F9000008B1012300E00023B2F902204B
:104D10000AB1012400E0002423436D4C4FF07705D5
:104D20004FF073064FF064084FF0610723D12BE07A
:104D3000002A06DD655401F10101C9B2A2F10102A8
:104D400006E006DA665401F10101C9B202F101027E
:104D500012B2002807DD04F8018001F10101C9B297
:104D6000A0F1010006E006DA675401F10101C9B2C1
:104D700000F1010000B250EA0203D9D15448FDF716
:104D8000A3FA0120BDE8F081FBF7A0FD08B1277070
:104D900027E0FBF797FD10B184F8008021E0FBF7D6
:104DA00093FD08B125701CE0FBF792FD08B1267059
:104DB00017E0FBF793FD10B9FBF782FD08B17820EF
:104DC0000EE0FBF789FD08B1632009E0FBF788FDE1
:104DD00008B1622004E0FBF77DFD0028D2D07620E8
:104DE00020700121CAE72DE9FF410546002403AAEE
:104DF0002146684600F094FD354F9DE807000C3FC2
:104E000087E807009DF80C10012902D0002004B0AB
:104E1000B8E700F0DDFA2D4EB081786800F0D8FADE
:104E2000F081B6F90C206942294BAA4209DA8A427C
:104E300007DDA84205DA884203DD782018700124D6
:104E400016E08A4202DA64241C700124AA4203DDBF
:104E500061221A55641C24B2884203DA772119555D
:104E6000641C24B2A84203DD73201855641C24B2CC
:104E7000A1B21748FDF728FA0120C8E7F8B54FF6A8
:104E8000FF74204603F000FC2321012200914FF41F
:104E90009F73114647F60F0002F03EF90DA10091F5
:104EA0001F2300220A212C2002F045FC09A10091B9
:104EB0001F2300220A212D2014E000005644443A0A
:104EC0002025322E31662056000000000C02002002
:104ED0003C4E00205348454C4C4D4F20436F6E7460
:104EE000726F6C0002F027FC5BA000902346022248
:104EF00003214FF4937002F01EFC57A0009023464C
:104F00000222032140F2271002F015FC534E544DAB
:104F100000241E20FFF767FF10B156F8341002E09E
:104F200006EBC400416804EBC40005EB800001619E
:104F30008161016204EBC40005EB800003F0AFF96E
:104F4000641CE4B2032CE4D3F8BD10B520B10128F1
:104F500005D0022807D108E000F090FD01E0FDF740
:104F6000C2FAFFF78BFF012010BD002010BD2DE914
:104F7000F0413A49891F881E03F060FA060035D0D7
:104F8000364F374D103F032E1AD1002404EBC400D6
:104F900005EB80003346B7F90A20B7F9081003F093
:104FA000F9F848B104EBC40005EB800003F077F991
:104FB0002046BDE8F041C8E7641CE4B2032CE5D309
:104FC0000024A84604EBC40108EB810005463346E3
:104FD000B7F90A20B7F9081003F0DCF810B1284639
:104FE00003F05DF9641CE4B2032CEBD30120C9E6A5
:104FF0002DE9F0417424AB220021194F0B4604F136
:1050000058064CF2186C47F6EF3501EBC100491C0D
:1050100027F8204007EB8000C9B28280468010321A
:10502000C2808381A0F80EC08382D21DC582838393
:1050300012B2C5830329E8D3FFF720FF06E0FFF78C
:1050400037FDFFF759FE1E20FFF7CDFEFFF78FFF5C
:105050000028F4D196E60000564E44001C020020C1
:10506000484E00202DE9F04F002587B02C46A94678
:10507000ADF81050ADF81450284603F005FB67E179
:1050800005A904A803F0DAF90746BDF91400BDF933
:105090001010B5A2CDF800900390CDE901210021B8
:1050A0004E464FF6FF730122084602F022FB002F06
:1050B00048D0012F04D0022F39D0032F54D11AE049
:1050C0000C200090BDF8140047F60F07801F82B235
:1050D000BDF810000C23801F81B2384601F0E2FFBA
:1050E0002846A5A10096CDE901106D1C01222DB224
:1050F0003B46002117E006200090BDF8140006236F
:10510000C01E82B2BDF81000C01E81B21F2001F087
:10511000C9FF20469BA10096CDE90110641C1F2306
:10512000012224B21021642002F0E3FA1CE047F6C9
:10513000E0373A46BDF91410BDF9100003F07FFACC
:1051400093A009E04FF4FC6747F6E032BDF9141074
:10515000384603F074FA90A0CDE900603B46012286
:105160000021E62002F0C5FAFBF72CF807F099FBC6
:10517000CDE902018AA0CDE900604FF478473B46B3
:1051800001221021E62002F0B4FAFBF72EFB88A1E1
:10519000CDE90061824640F2FF7802904346012249
:1051A0003021002002F0A5FAFBF72BFB82A1CDE90C
:1051B000006183460290434601223021502002F0D4
:1051C00098FAFBF72BFB7EA100960390CDE9011026
:1051D000434601223021A02002F08BFAFBF72AFB84
:1051E00079A100960690CDE90110434601223021B5
:1051F000F02002F07EFA502600213346A022084615
:10520000009601F089FF5023A022F0210020009693
:1052100001F082FF0BEBCB008000092690FBF6F03B
:10522000C0F1C80082B20AEBCA00800090FBF6F021
:10523000283081B20323384601F0F0FF069803239B
:1052400000EBC000800090FBF6F0C0F1C80082B215
:10525000039800EBC000800090FBF6F000F58C7026
:1052600081B2384601F0DAFFFBF730FB4FF00D0357
:105270004FF0C7024FF05D0108B11F2000E0002091
:1052800001F0CCFFFBF71EFB4FF00D034FF0C70200
:105290004FF0910108B1384600E0002001F0BEFF58
:1052A000FBF712FB4FF00D034FF0AD024FF077010B
:1052B00010B14FF4FC6000E0002001F0AFFFFBF7FD
:1052C00007FB4FF00D034FF0E1024FF0770110B1F3
:1052D0004FF6E07000E0002001F0A0FFFBF7FEFABF
:1052E0004FF00D034FF0C7024FF0AF0108B11F2080
:1052F00000E0002001F092FFFBF7EEFA4FF00D0303
:105300004FF0C7024FF0E30108B1384600E000203B
:1053100001F084FFFBF7E4FA4FF00D034FF0AD020C
:105320004FF0C90110B14FF4FC6000E0002001F023
:1053300075FFFBF7CFFA4FF00D034FF0E1024FF08E
:10534000C90110B14FF6E07000E0002001F066FFE7
:10535000FBF7B6FA002804D1FBF7C4FA00283FF4A3
:105360008FAE07B0BDE8F08F783A202533640A7914
:105370003A20253364000000446F776E3A202535CB
:1053800064000000557020203A202535640000009C
:10539000486F6C64000000004E6F6E6500000000F6
:1053A0005644443A2025322E316620560000000033
:1053B0004C783A20253464004C793A202534640036
:1053C00052783A202534640052793A20253464001A
:1053D00010B5FE4906F0A6FF07F063FA08F09CFF3F
:1053E0000022FB4B07F0C7F807F023FA00B210BD0C
:1053F00070B5F84D86B0286807F0D8F94FF2DE7422
:10540000F5A10094CDE9011027211F2301220320DB
:1054100002F06FF9686807F0C9F9F2A10094CDE9CC
:1054200001101F2301223721032002F062F9A8682E
:1054300007F0BCF9EEA10094CDE901101F23012271
:105440004721032002F055F9EC48EDA14FF47843D1
:10545000B0F900000094CDE901100122572103208A
:1054600002F047F9E548E9A14FF47843B0F90200AA
:105470000094CDE9011001226721032002F039F9DF
:10548000DE48E5A14FF47843B0F904000094CDE97B
:10549000011001227721032002F02BF9D748E1A166
:1054A000801F4FF4FC66B0F900000094CDE90110B4
:1054B000334601228721032002F01BF9CF48DCA1EB
:1054C000801F3346B0F902000094CDE90110972106
:1054D0000122032002F00DF9C848D8A1801F3346ED
:1054E000B0F904000094CDE90110A72101220320A6
:1054F00002F0FFF8C14E163EF06807F0D2F9CDE990
:105500000201D1A0CDE90040B721002301220320F0
:1055100002F0EFF8B6F90200CFA10094CDE9011036
:10552000C72100230122032002F0E3F82868FFF7D7
:105530004FFF1C3630806868FFF74AFF31464880CD
:10554000A868FFF745FF31468D1D8880B5F9040036
:10555000B5F90210B5F90020C2A30094CDE90132DB
:10556000CDE903104FF478430122CC21992002F0B9
:10557000C0F8A81FB0F90010B5F90000814205D1AC
:10558000B6F90210B5F9022091422FD069884D2258
:1055900011FB02F15A2491FBF4F17A318AB24D21C8
:1055A000484390FBF4F0C0F1E90081B202234FF2CE
:1055B000DE7001F033FE30882880718869804D22CA
:1055C00011FB02F191FBF4F17A318AB24D2110FB0B
:1055D00001F090FBF4F006B0C0F1E900BDE87040C6
:1055E00081B202234FF4784001F018BE06B070BDBE
:1055F000F8B54FF2DE7003F047F823200122009047
:105600004FF49F7311461F2001F086FD9BA04FF4BD
:1056100078440090234600220A21542002F08BF89F
:1056200096A00090234600220A21552002F083F81C
:1056300095A04FF6FF7400902346022203214FF4F9
:10564000937002F078F890A0009023460222032184
:1056500040F2271002F06FF8A420034600902822A1
:1056600097211F2001F01EFD644F5A4D163F002464
:1056700007F130062C353878012816D006EBC40027
:10568000416804EBC40005EB8000016181610162A7
:1056900004EBC40005EB800002F001FE641CE4B2E0
:1056A000032CE8D3BDE8F840A2E656F83410E8E74A
:1056B0001CB576A1CDE900106423C82246213C2008
:1056C00001F084FBBDE81C4092E770B504466428F5
:1056D00002DD70A0FFF7ECFF002C11DD474D2046E6
:1056E000163D6C8007F028F801464FF07E5006F01A
:1056F0004FFE6E49A86006F015FEE860012070BDFF
:10570000002070BDF8B5040004D0012C27D0022879
:1057100037D138E0394D2F4E163D05F13007287846
:105720002C3670B17868306104EBC40006EB800061
:1057300002F0B5FD641CE4B2032CF3D30020287002
:105740001FE03868306104EBC40006EB800002F013
:10575000A6FD641CE4B2032CF3D30220EFE76946F4
:1057600053A002F08BF950B1009802F0CFFA00B2CA
:10577000FFF7ABFF012802D051A0FFF799FFFFF719
:1057800037FF0120F8BD0020F8BD2DE9F0411B498D
:105790001039881E02F052FE060014D0174F0D4D2E
:1057A000163F2C35032E0FD1002404EBC40005EB6B
:1057B00080003346B7F90620B7F9041002F0EAFC7E
:1057C00000B185E08EE0A8E091E0000035FA8E3C63
:1057D00000805640B44E0020526F6C6C203A202559
:1057E0003464000050697463683A20253464000012
:1057F00059617720203A2025346400004E020020B1
:105800004779726F20583A20253864004779726FC3
:1058100020593A20253864004779726F205A3A207F
:10582000253864004163636520583A2025386400B8
:105830004163636520593A202538640041636365FC
:10584000205A3A20253864006474286D73293A2060
:1058500025312E34660000006628487A29203A2037
:1058600025386400783A2025336420793A2025339E
:1058700064207A3A2025336400000000494D552009
:105880005365747570000000564E44002020457228
:10589000726F72004672657175656E637920697307
:1058A00020746F6F206869676800000000007A4408
:1058B0004E6577204672657175656E6379000000EC
:1058C00057726F6E67206672657175656E637900D9
:1058D00004EBC40005EB800002F0E1FC2046BDE8CB
:1058E000F0410FE7641CE4B2032CFFF45EAF002428
:1058F000A84604EBC40108EB810005463346B7F91E
:105900000620B7F9041002F045FC10B1284602F059
:10591000C6FC641CE4B2032CEBD30120BDE8F0818B
:105920002DE9F047774D8246774E287886B091462C
:105930000C4600283CD0012841D000274FF0010838
:10594000022802D0032833D11AE001F0EEF8D5E99D
:105950000A23801A61EB030106F0FCFEE96806F0F9
:10596000F7FF25D3684A02F11C01A1F1100001F0F4
:1059700060F802281AD104B3FFF73AFD63A01AE0D9
:1059800001F0D3F8D5E90A23801A61EB030106F090
:10599000E1FEE96806F0DCFF65D35B4A02F11C0119
:1059A000A1F1100001F045F8022802D085F800802E
:1059B00059E014B15CA0FFF77BFE2F7053E001F0BB
:1059C000B4F8D5E90A23801A61EB030106F0C2FEA0
:1059D000E96806F0BDFF46D301F0A7F8C5E90A0162
:1059E00048491631881F00F0CBFA012806D014B1BF
:1059F00054A0FFF75DFE0320287034E00121E86821
:105A000006F006FD074601F090F8D5E90A23801A52
:105A100061EB030106F09EFE394606F0A3FF08D8AD
:105A200014B14EA0FFF744FE1420FFF74EFE0220F3
:105A300028703448344B083000F10E0200900C33CB
:105A4000911F01A800F059FDB069009006F10C010A
:105A500001A80EC900F0DAFB01AB07CB86E807000E
:105A60000CB1FFF7C5FC297889F800100ECECAE901
:105A70000012CAF8083006B0BDE8F0872DE9FF47EC
:105A8000DD254723DFF88090DFF878C000210C4641
:105A900009F12C0905F110074CF218680CF1300CD3
:105AA00047F6EF3601EBC10029F8203009EB800002
:105AB000503385804380C7808481A0F80E805CF8D5
:105AC000312002618482C6828261DB1C8483491C8E
:105AD000C683C9B21BB202620329E3D30948B0F9F5
